:100000000C942A000C9434000C9434000C943400AA
:100010000C9434000C9434000C9434000C94340090
:100020000C9434000C9434000C9434000C94340080
:100030000C9434000C9434000C9434000C94340070
:100040000C9434000C9434000C9434000C94340060
:100050000C94340011241FBECFE5D4E0DEBFCDBF29
:100060000E947C000C9492000C9400009C01217072
:100070003078332334F4215031092E6F3F6F2F5FD6
:100080003F4FA901440F551F9C01992314F42F5F82
:100090003F4F35952795C90181709078992324F4B5
:1000A00001978E6F9F6F0196842B9B012170307892
:1000B000332334F4215031092E6F3F6F2F5F3F4FB0
:1000C000220F331F220F331F220F331F282BCB0188
:1000D00099230CF4019695958795817090789923D2
:1000E00024F401978E6F9F6F0196880F991F880FD8
:1000F000991F822B8BBB08958FEF8ABB00E010E025
:100100000EC0BE01C8010E94360000C02196C43056
:10011000D105B9F70F5F1F4F0430110579F3C0E027
:08012000D0E0EFCFF894FFCF0F
:00000001FF
